:020000040000FA
:1080000000A1000071810000798100007B810000E7
:108010007D8100007F810000818100000000000060
:10802000000000000000000000000000838100004C
:108030008581000000000000878100008981000028
:108040008B8100008B8100008B810000000000000C
:10805000000000008B8100008B8100008B810000FC
:108060008B810000000000008B8100008B810000EC
:108070008B810000000000008B8100008B810000DC
:108080008B8100008B810000000000008B810000CC
:108090008B810000000000000000000000000000D4
:1080A0000000000000000000000000008B810000C4
:1080B0008B8100008B8100008B8100008B81000090
:1080C00000F002F800F045F80AA090E8000C8244A5
:1080D0008344AAF10107DA4501D100F03AF8AFF282
:1080E000090EBAE80F0013F0010F18BFFB1A43F096
:1080F000010318477C1700008C17000000230024A0
:1081000000250026103A28BF78C1FBD8520728BFA7
:1081100030C148BF0B607047632900F0408173296C
:1081200000F04581002070471FB59DE8030000F076
:10813000E3FF01F095F904000020002101F07CFB31
:10814000401C606000F0ACF91FBD10B500F011FAE2
:1081500010BD00F074FA1146FFF7E6FF01F00EFBC8
:1081600000F068FF03B4FFF7F0FF03BC01F072F901
:108170000948804709480047FEE7FEE7FEE7FEE7BB
:10818000FEE7FEE7FEE7FEE7FEE7FEE704480549F7
:10819000054A064B7047000009970000C1800000A7
:1081A000009B000000A10000009D0000009D000059
:1081B0000FB4044910B503AA029800F0FDF810BCF2
:1081C0005DF814FBF49900002DE9F0410E460446D9
:1081D000002020622046E168884730B3252805D07A
:1081E000D4E901219047206A401CF2E7E16820466B
:1081F00000278847050018D0A5F14100192802D8AA
:1082000020354FF400673246294620462760FFF7A5
:1082100083FF40B1012804D0F61D26F0070608367A
:10822000D8E7361DD6E72846DAE7206ABDE8F081B0
:1082300070B50C460546012A05D02878800600D581
:10824000EA69002302E0012305E05B1C934202D2AD
:10825000E05C0028F9D1A869E618C01AA861286A6C
:10826000184428622846AFF3008004E0D5E90121D4
:1082700014F8010B9047B442F8D32846AFF30080BE
:1082800070BD00000FB400B589B00BA86A4600901D
:1082900003480A9900F0A2F809B05DF814FB000049
:1082A000A09900002DE9FF5F4FF0000899461446A1
:1082B00046469169D2E901A7DDF838B001988847B0
:1082C000054659EA0B0005D009E0A1690198761C22
:1082D00088470546216A284688470028F5D1681C4A
:1082E00003D05FEACA7005D015E04FF0FF3004B04C
:1082F000BDE8F09F2068011D2160D0F800800AE0F1
:108300005FEACA7001D108F8015BA169761C019887
:108310007F1E88470546002F1ADD681C18D0B9F16A
:10832000000F0DD0E81705EBD060421120F01F00C0
:1083300059F822102A1A012090400142E0D107E0AA
:10834000BBF1000FDCD12846216A88470028D7D02E
:10835000E16901988847BBF1000F07D1002E05DDC8
:108360005FEACA7002D1002188F80010A068B84204
:1083700003DDBBF1000F03D017B16FF00100B6E7CA
:108380003046B4E770477047704710B5436913B182
:10839000AFF3008001E0FFF74BFF012010BD127822
:1083A00000F124010A7000224A700122EDE71168F1
:1083B0004FF0FF32E9E70000074B70B50D467B44F4
:1083C00000F01DF80446284600F066F810B14FF0A2
:1083D000FF3070BD204670BD9F130000034B7B44EF
:1083E0009361034B7B44D36100F022B86713000014
:1083F0006B00000001694A1C02610878704700B5F3
:108400008FB0CDE901310021059105497944CDE9CD
:10841000031011466846FFF7D7FE0FB000BD0000FD
:10842000E5FFFFFF026811441378016018467047AA
:10843000D1600549794451610449794411620021B0
:108440001161114600F050B9EDFFFFFF99020000E5
:10845000704710B54FF0FF34C1688A020FD5036B27
:1084600042689A420BD1014690F82520104600F050
:1084700021FD401C01D1204610BD002010BD11F08F
:10848000C00FF8D1026941689142F4D90268491ECF
:10849000521CC0E90021F0E7007B00F0800070472B
:1084A00010B54248542100F0D5FD4148542100F058
:1084B000D1FD4048542100F0CDFD3F493B483C4AA6
:1084C0003F4B08603D490A603A491960531C0365F7
:1084D000481C1065012008653B48344A39A178449E
:1084E00000F00CFD20B9384878440A3800F0ABFDA4
:1084F00037482F4A35A1784400F000FD20B93448B0
:1085000078440A3800F09FFD32482A4A2FA1784467
:1085100000F0F4FC20B92F4878440A3800F093FDAD
:1085200040232248DC000021224600F09FFC20B1BD
:1085300025487844543800F086FD1D4822464023E3
:10854000002100F093FC20B121487844543800F019
:108550007AFD184822461023002100F087FC0028ED
:1085600006D01C487844BDE81040563800F06BBD7A
:1085700010BD104870B5006D20F001040B4800F0EC
:1085800033FD0B4800F030FD0A4800F02DFD09E0F6
:10859000206D20F00105204600F026FD204600F069
:1085A00073F82C46002CF3D170BD0000A099000098
:1085B000F4990000489A00009499000098990000EE
:1085C0009C990000720000008213000077000000F8
:1085D0006E1300005A1300000EB5CDE9000100F043
:1085E00019FF029069460120ABBE0EBD08B5694671
:1085F00000900220ABBE08BD1FB58DE8070069469C
:108600000520ABBE04B010BD1FB58DE80F00694654
:108610000620ABBEF6E708B5694600900920ABBE60
:1086200008BD1CB5CDE9000169460A20ABBE1CBDE2
:10863000704708B5694600900C20ABBE08BD754672
:1086400000F030FDAE4605006946534620F00700B5
:10865000854618B020B5FFF799FDBDE820404FF0E2
:1086600000064FF000074FF000084FF0000B21F01C
:108670000701AC46ACE8C009ACE8C009ACE8C009E9
:10868000ACE8C0098D46704770B50446051F00F080
:1086900017FD0068002C14BF446870BD002C18BF83
:1086A000AC423CBF20466468F8D301680A18AA426D
:1086B00018BF456003D12A68054611440160286847
:1086C0004119A1421CBF6C6070BD6168696021687E
:1086D0000844286070BD10B5044600F0E9FC00684D
:1086E000005D00F0010010BD2DE9F34F4FF0000ACE
:1086F0000C4656468DB001200C9001F10C000B90F9
:1087000062690B9801219047051E2DD0252D2CD094
:10871000216A8847C0B162690B9801219047216A9C
:1087200088470028F7D16269411E0B98904700E006
:10873000761CA1690D988847216A88470028F7D1DF
:10874000E1690D988847DBE7A1690D988847A84241
:10875000074601D1761CD3E7E1690D9888477F1C55
:1087600002D1BAF1000F6FD06BE162690B9800275C
:108770003D46394690472A2804D162690B98012169
:1087800090470125DFF8D08262690B98012190475C
:10879000A0F130010A290AD24745E5DC07EB870141
:1087A00000EB4107303FDFD445F01005ECE7E90668
:1087B00001D46FF000476C280AD04C2814D06828E8
:1087C00015D06A280DD074281CD07A281AD01DE044
:1087D00062690B98012190476C2802D045F004058E
:1087E00014E045F002050DE045F020050AE062695D
:1087F0000B9801219047682802D045F0080505E054
:1088000045F4006562690B9801219047C4E901575E
:1088100065283DD019DC58287AD00CDC452837D0A3
:1088200004DC252826D041289ED131E046282FD0CF
:10883000472899D12CE05B2877D0612828D063287D
:108840007CD0642823D15AE0F6E06F2848D008DCB9
:1088500066281DD067281BD0692821D06E2816D124
:1088600027E0702845D0732868D0752847D078282D
:108870000DD14DE0A1690D988847252805463FF4A4
:1088800069AFE1690D9888476D1C3FF46AAFD8E085
:108890000D9923466A466FF00100AFF30080C5E0F2
:1088A00045F0400023464FF000026060A80736D430
:1088B0003EE0E8077FF447AF2068011D21600068B3
:1088C000290501D506701BE7290701D5068017E7A2
:1088D000A90703D5F117C0E9006111E706600FE7AA
:1088E00045F0400023464FF008026060A80716D408
:1088F0001EE040F60E0125EA0100606016E045F03A
:10890000400023464FF00A026060A80707D40FE03A
:1089100045F040006060A80708D5234610220D9955
:108920006FF00100AFF3008080E007E010222346E3
:108930000D996FF00100AFF3008077E04FF0000970
:1089400063284F46C8464B46CB4602D05B2806D02C
:1089500038E0E80601D40120A060012732E0626916
:10896000D4F80CB00B98012190475E2807D14FF046
:10897000010949466269D4F80CB00B989047216907
:1089800039B900210A4603AB43F82120491C0829C4
:10899000FADBD8B3216949B308F1010862690B9881
:1089A000012190475D28F4D1B9F1000F09D00020D2
:1089B00003A951F82020D24341F82020401C082868
:1089C000F7DB03AB2069002820794FEA40701ED006
:1089D0005B462246CDF80080CDE901970D9900282D
:1089E0006FF0010020DAAFF300801FE0C11703AA87
:1089F00000EBD1614B1121F01F0102EB8302411A00
:108A000013680120884003431360C7E719E00D99FC
:108A1000224600286FF00100009702DAAFF30080D1
:108A200004E0FFF73FFC01E0AFF3008000280ADA22
:108A3000401C06D10C9820B14FF0FF300FB0BDE8BC
:108A4000F08F5046FAE7E90701D10AF1010A06441E
:108A500000200C9054E60000CCCCCC0C70B50D4638
:108A600001461446D36850692A46FFF7CDFD002819
:108A700007DA411C07D0E16820F0004041F4804152
:108A8000E160281A70BD204600F010FC4FF0FF3066
:108A900070BDC1680022026021F4805141F04001A4
:108AA00011F4C06FC16001D08260704702694168F3
:108AB000891AC269891A816070472DE9F047044616
:108AC000C06840F48000E060010312D520F400206B
:108AD000E060810606D4E26A61688A4200D80A46EC
:108AE000511A216040F40010E06094F82500BDE8C0
:108AF000F08720F40010E060800602D5204600F0E8
:108B00002CFCE06842F281014FF0FF39014001295D
:108B100003D0204600F0CAFBB6E0216800260029F9
:108B20000ADAC94340F480502160C4E902606068F9
:108B3000411C61600078DAE744F2400108420CD041
:108B400020F4A04040F040002660E06021696068A9
:108B5000401AE169401AA06096E0216991B9C0030A
:108B600010D4E06900F0F7FA2061B0B1E06840F499
:108B7000006010F4407FE06002D140F48070E0605B
:108B800020696060E068D4F814A0C1061AD5C0035B
:108B90000ED5204600F0BEFB14E004F12400206155
:108BA0000120E061E06820F4407040F48060E6E776
:108BB00021696068401AA16901445046FFF731FD00
:108BC0000028A6DBE068C0032AD56168E06A884215
:108BD00000D808462169451AE069471B1BD020468A
:108BE000D4F8188000F096FB08EB05015046C4F855
:108BF0001880FFF716FD00288BDBE06840F400309A
:108C0000E060000202D5A0692844A061E169206902
:108C1000C91B45180DE0204600F07CFBE769F5E72D
:108C200025696168D4E90607491BE5620844656067
:108C3000A061E06820F0100010F4C06FE06002D086
:108C4000204600F0ABFBE06840F48050C4E90260CD
:108C5000000205D52069E06260606FF0010046E720
:108C6000224639462846FFF7F9FE411C0CD0291848
:108C7000E16258B1401E2060681C6060E06840F40A
:108C80000030E060287832E7484630E765602046EB
:108C9000FFF7FFFEF8E72DE9F04705460C46C868E8
:108CA00020F4201040F48000C860800602D50846F9
:108CB00000F053FBE06841F282014FF0FF390140C0
:108CC000022903D0204600F0F1FAB5E000F420417B
:108CD000B1F5004F0FD1C00306D56168E06A884244
:108CE00000D80846606006E02069E0626060606964
:108CF000FFF79FFCA061A0680022EEB200280DDA09
:108D0000E1688B050AD4C043A06041F49030226032
:108D1000E0606068411C61600670A5E0E068904614
:108D2000226040F40050E060206968BB6069FFF792
:108D300072FC012704F12405A0B1A08910F4407F42
:108D400008D0E06900F007FA206118B1E06840F44B
:108D5000006016E0E7612561E06820F4407040F4AF
:108D600080600EE0E06900F0F6F900282061F1D0A3
:108D7000E06840F4006010F4407FE06002D140F40D
:108D80008070E06020696060E06825696FF0010A2A
:108D9000C1051FD56168E06A884200D80846411BBA
:108DA00004D02246284600F08BFAF0BBE0680102AE
:108DB00003D5E562C4E9015854E0691CE1626160D1
:108DC000E16940F48030491EC4E9021030462E703B
:108DD000BDE8F087010202D500F480320AE0606845
:108DE000411C61600670E0680A2E40F48030E0604B
:108DF00006D00022E16A6068814203D90B4602E096
:108E00000122F7E70346A7895B1B7F0503D4E769C7
:108E10009F4200DDE2B1814200D80146E5620F1AAF
:108E2000C4E90158002B09DD00E005E0224619469F
:108E3000284600F045FA08B14846C9E747B1A0699D
:108E4000E5626560C01BA061E06840F01000E06072
:108E5000E068000208D56168A069E562491B084422
:108E60006560A0615046B3E73046B1E770B5C468AD
:108E7000A50713D0650211D4B2F5807F09D0B2F5F1
:108E8000007F06D0B2F5806F08D1012300F12401E4
:108E900006E05D1E6FF07F46B54201D3012070BD34
:108EA0000161C361416024F470611143C16000201D
:108EB00070BD0000CA68431C0FD00D4B1A420CD184
:108EC000D3070AD081F825004B680B6300238B6021
:108ED00012F0C06F0B6003D004E04FF0FF3070471A
:108EE00042F00072034B1A40034B1A43CA607047AA
:108EF00080200800BFFFDFFF001048002DE9F0418F
:108F00000C4607461646104600F06EF82078611CA5
:108F100061280AD0722802D077283CD102E00125CE
:108F2000002405E00225042402E0082448F202059A
:108F300011F8010B2B2806D0622809D011F8010C7A
:108F400074280AD00BE045F0030544F00204EFE773
:108F500045F0040544F00104EAE744F01004384603
:108F60002146FFF739FB411C15D0002131617160AA
:108F70004FF40071F560F1617061200704D530464F
:108F80000222002100F016F9306D40F0010030653A
:108F90003046BDE8F0810020FBE72DE9F0410D46A9
:108FA0000646104C206DC10704D0410804D020F0C3
:108FB0000104F7E722460EE0542000F0CCF8070049
:108FC0000ED0206D47F0010108435421206538463A
:108FD00000F040F83A4629463046BDE8F0418DE7BA
:108FE0000020D6E7A09900002DE9F04704464FF095
:108FF00000094FF0FF37C568D4E90486A80707D0F9
:10900000204600F087F93046FFF7F0FA002802DA30
:109010003846BDE8F087280502D54046FFF734FB07
:109020004C21204600F016F8206D20F0010020654C
:109030004846EEE710B50446AFF300802046BDE891
:109040001040FFF78FB810B500F0CAF9BDE8104026
:1090500000F0C0B94FF0000200B5134694469646A2
:10906000203922BFA0E80C50A0E80C50B1F120013B
:10907000BFF4F7AF090728BFA0E80C5048BF0CC0E9
:109080005DF804EB890028BF40F8042B08BF704747
:1090900048BF20F8022B11F0804F18BF00F8012BB9
:1090A00070470000004870479C9A0000704700001D
:1090B00010B500F0D5F9001D10BD00BF7D07000000
:1090C00000487047A49A0000704770477047704787
:1090D00038B504460A4600206946AFF300800028F0
:1090E00008BF38BD02460099204600F0C4F90120AF
:1090F00038BD012000F046BAF8B5AFF30080054650
:1091000000200C46102000BF0646A819A0420DD929
:10911000324669460020AFF30080070008BF00F028
:1091200031FA0098A04218BF0546C419FFF7C8FFDE
:1091300005600746F01D20F007004619284600F09C
:1091400093F9B44208BFF8BDA21B31463868BDE8A8
:10915000F84000F090B970B50646FFF7B1FF05681A
:1091600006F10B0020F00704B4429CBF002070BD44
:109170002B466A68BAB11068A04210D304F1080106
:1091800088423CBF5068586007D35168101941604D
:109190001168091B016058601460101D70BD1346F2
:1091A0005268002AE7D121462846FFF791FF0028A0
:1091B000DED170BD2DE9F041044616460D464769E3
:1091C000007B80072ED03846FFF725FA50BB3EB310
:1091D000012E02D0022E25D104E0204600F098F99D
:1091E00005441DE03846FFF724FAE168002841F005
:1091F0001001E16005DA204600F058F80120BDE8D2
:10920000F081C9030BD56268E16A914200D811462A
:10921000A26911442269891A814200DD0846054489
:10922000002D01DA0220EAE7E16A6068E268814223
:1092300006D29103E06203D522F4003141F010021E
:10924000A6690027AE4213DCE16A814201D90B46D0
:1092500000E0034603EB060C2369ACEB030CAC45C2
:1092600006DD814201D98C4600E084469C4505D14B
:10927000A760276042F02000A5620DE0AD1BE66903
:10928000AE1B8142A66000D90846C01A281A206089
:109290005819606022F0200003490840E060002077
:1092A00084F84870ABE70000BFCFD7FFC16821F456
:1092B000001141F08001C1600021816001607047B0
:1092C0002DE9F047814614460E464FF0FF383248EC
:1092D000D5685769054209D03846A169FFF7A1F959
:1092E000002811DB2C48C0430540E5602B46324680
:1092F00049463846FFF780F9A16920F00042B21ACA
:1093000011440028A16103D02046FFF7CFFF40465B
:10931000BDE8F08770B504460569C06A6168884297
:1093200000D80846E16821F42011E160C90312D594
:10933000A84208D02246411B2846FFF7C1FF10B1C2
:109340004FF0FF3070BD0020E562C4E90150E068D5
:1093500020F48030E060002070BD10B50446C06885
:1093600020F02000E060A16AA06988420DD020466C
:10937000FFF7D0FFE06820F4405040F01000E060BC
:10938000A06AA0612069E062606044F24001E06888
:109390008843E06010BD00001000020070B5054673
:1093A00040F202260A4C0FE094F85000C00708D0A3
:1093B000AC4206D0E06836EA000002D1204600F058
:1093C00075F8206D20F00104002CEDD170BD000077
:1093D000A0990000002801D000F03CB870470000C0
:1093E00010B5014602A000F0B4F8012010BD000045
:1093F00053494752545245443A2052656469726554
:1094000063743A2063616E2774206F70656E3A2032
:109410000000000010B5431C02E010F8011B71B100
:109420008107FAD14FF0013202C88C1A8C4314EA3A
:10943000C211F9D0C01A0A0603D0C01E10BDC01A4E
:1094400010BD0A0401D0801E10BD0902FCD0401ED0
:1094500010BD000001491820ABBEFEE72600020047
:1094600000487047BC9A000000210160C0E901106B
:10947000704710207047034640688C46002818BF8C
:1094800088423CBF03464068F8D3186818448842B5
:1094900007D00CF1030020F00700001D411A521AFA
:1094A0000146081D0A60FFF7EFB8000070B50446DA
:1094B000C068810713D0800601D5A56A04E0A169C0
:1094C000606808442169451A2046FFF723FF0022FF
:1094D000064629462046FFF76DFE304670BD002047
:1094E00070BD70B510B1BDE87040DFE70025074CD6
:1094F0006E1E07E02046FFF7D9FF00B13546206D0C
:1095000020F00104002CF5D1284670BDA099000080
:1095100010B50146C268900703D0900607D5886A47
:109520000AE000F03DF801210160881E10BD8B6942
:10953000486818440B69C01A91F848301BB191F87B
:109540004910401A10BD1103FCD50028FADD401E59
:1095500010BD70B505460C460A2000E06D1C00F0F9
:1095600018F835B128780028F8D102E0641C00F022
:1095700010F814B120780028F8D1BDE870400A2016
:1095800000F007B810B500F00FF8BDE81040FFF785
:1095900021BF08B569468DF800000320ABBE08BDA9
:1095A000004870479C9A000010B5012805D00021A2
:1095B00003A0FFF7CEFF012010BD09A1F8E70000CE
:1095C00053494752544D454D3A204F7574206F66AC
:1095D0002068656170206D656D6F72790000000014
:1095E0003A2048656170206D656D6F727920636FF8
:1095F00072727570746564004FF0013C50F8042B72
:1096000051F8043B9A4221D1A2EB0C03934313EA95
:10961000CC1317D150F8042B51F8043B9A4215D1C2
:10962000A2EB0C03934313EACC130BD150F8042B99
:1096300051F8043B9A4209D1A2EB0C03934313EA7D
:10964000CC13DBD04FF00000704700BFD01A01BA36
:10965000B1FA81F101F0180122FA01F0CB40C1F119
:109660002001DBB2C0B2C01A2CFA01F3D11A914327
:1096700011EAC311E6D1704730B5204CE46804F01C
:109680000204022C01D11E4800E01D481B4CE46876
:1096900004F0010404B140080146184CE46804F0E9
:1096A0000404042C05D1154C6468C4F30324631C22
:1096B0005943124CE468C4F3012424B1012C06D0B0
:1096C000022C13D10DE00E4C0E4D2C6013E00B4C10
:1096D000E468C4F30314641CB1FBF4F2094C226087
:1096E00009E04FF40044074D2C6004E049F6404483
:1096F000044D2C6000BF00BF30BD000000000240E0
:1097000000127A009099000000B50D480D49C8611B
:109710000846C0680020C8600846406800204860CD
:1097200008468068002088600846006900200861BB
:109730000846406900204861FFF79EFF00BD000019
:1097400010000008000002400168002901DCFFF75A
:10975000B4B9491E016041684A1C426008787047EC
:109760008A68002A01DCFFF796BA521E8A604A68AE
:10977000C0B2531C4B60107070470000ADF5844DB3
:1097800000BF2B2400253BE01EA0FEF711FD44F294
:109790007C1169441FA0FEF775FD44F27C116944F9
:1097A0001DA0FEF705FD002110E000200AE00A18C8
:1097B00044F27C136B449A5C05EBC5131EAE334434
:1097C0001A54401CA042F2DB6D1C21448129ECD3C9
:1097D00015A0FEF7EDFC002610E0002708E006EBE0
:1097E000C6101EAA1044C15D12A0FEF7E1FC7F1C4A
:1097F000A742F4DB0BA0FEF7DBFC761CAE42ECDBF1
:10980000C2E70000456E746572206D657373616711
:10981000653A0A0025730000596F7572206D7367F1
:109820003A2025730A000000596F7572206D736726
:109830003A2000002563000010B500290AD00878FE
:10984000002807D005487844FFF7D6FE002801D04D
:10985000002010BD0248784410BD00003A0000000E
:10986000320000003A7474003A7474003A74740060
:10987000A0990000A099000060070000FC80000093
:109880001001000043000000F8FFFFFF00404040CF
:1098900040404040404041414141414040404040C3
:1098A000404040404040404040404040400502026F
:1098B000020202020202020202020202022020202E
:1098C000202020202020200202020202020290908A
:1098D0009090909010101010101010101010101088
:1098E00010101010101010100202020202028888DC
:1098F00088888888080808080808080808080808E8
:1099000008080808080808080202020240000000CF
:109910000000000000000000000000000000000047
:109920000000000000000000000000000000000037
:109930000000000000000000000000000000000027
:109940000000000000000000000000000000000017
:109950000000000000000000000000000000000007
:1099600000000000000000000000000000000000F7
:1099700000000000000000000000000000000000E7
:1099800000000000000000000000000000000000D7
:1099900000127A000000000000000000000000003B
:040000050000817105
:00000001FF
