:020000040800F2
:10000000700700207D0100088501000887010008B5
:10001000890100088B0100088D0100080000000024
:100020000000000000000000000000008F01000838
:1000300091010008000000009301000895010008EC
:1000400097010008970100089701000800000000D0
:1000500000000000970100089701000897010008C0
:1000600097010008000000009701000897010008B0
:1000700097010008000000009701000897010008A0
:100080009701000897010008000000009701000890
:1000900097010008000000000000000000000000C0
:1000A00000000000000000000000000097010008B0
:1000B00097010008970100089701000897010008C0
:1000C00000F002F800F04AF80AA090E8000C824420
:1000D0008344AAF10107DA4501D100F03FF8AFF2FD
:1000E000090EBAE80F0013F0010F18BFFB1A43F016
:1000F00001031847680E0000880E0000103A24BF64
:1001000078C878C1FAD8520724BF30C830C144BF7C
:1001100004680C60704700000023002400250026BE
:10012000103A28BF78C1FBD8520728BF30C148BF5A
:100130000B607047632900F0B780732900F0BC8022
:10014000002070471FB59DE8030000F007FC00F099
:10015000E5F81FBD10B500F04AF910BD00F0ADF98B
:100160001146FFF7EFFF00F09DFE00F09DFB03B48A
:10017000FFF7F0FF03BC00F083FD00000948804753
:1001800009480047FEE7FEE7FEE7FEE7FEE7FEE779
:10019000FEE7FEE7FEE7FEE704480549054A064B91
:1001A00070470000490E0008C100000870010020DF
:1001B0007007002070030020700300200FB4044972
:1001C00010B503AA029800F07BF810BC5DF814FB90
:1001D000640000202DE9F0410E4604460020206214
:1001E0002046E168884730B3252805D0D4E90121AD
:1001F0009047206A401CF2E7E168204600278847C4
:10020000050018D0A5F14100192802D820354FF477
:1002100000673246294620462760FFF78BFF40B132
:10022000012804D0F61D26F007060836D8E7361D4B
:10023000D6E72846DAE7206ABDE8F08170B50C46BB
:100240000546012A05D02878800600D5EA690023F2
:1002500002E0012305E05B1C934202D2E05C00282F
:10026000F9D1A869E618C01AA861286A184428625A
:100270002846AFF3008004E0D5E9012114F8010B12
:100280009047B442F8D32846AFF3008070BD704762
:100290007047704710B5436913B1AFF3008001E0B8
:1002A000FFF7CCFF012010BD127800F124010A7085
:1002B00000224A700122EDE711684FF0FF32E9E7B2
:1002C000074B70B50D467B4400F011F804462846F4
:1002D00000F020F810B14FF0FF3070BD204670BD27
:1002E000BF0B000001694A1C02610878704700B525
:1002F0008FB0CDE901310021059105497944CDE95F
:10030000031011466846FFF765FF0FB000BD0000FF
:10031000E5FFFFFF007B00F08000704710B542480A
:10032000542100F0D1FA4148542100F0CDFA404860
:10033000542100F0C9FA3F493B483C4A3F4B086012
:100340003D490A603A491960531C0365481C106511
:10035000012008653B48344A39A1784400F008FA86
:1003600020B9384878440A3800F0A7FA37482F4AAD
:1003700035A1784400F0FCF920B9344878440A38B3
:1003800000F09BFA32482A4A2FA1784400F0F0F995
:1003900020B92F4878440A3800F08FFA40232248C9
:1003A000DC000021224600F0BFF920B12548784446
:1003B000543800F082FA1D4822464023002100F004
:1003C000B3F920B121487844543800F076FA18483F
:1003D00022461023002100F0A7F9002806D01C486F
:1003E0007844BDE81040563800F067BA10BD104898
:1003F00070B5006D20F001040B4800F02FFA0B4897
:1004000000F02CFA0A4800F029FA09E0206D20F0EB
:100410000105204600F022FA204600F073F82C4631
:10042000002CF3D170BD00001000002064000020FB
:10043000B800002004000020080000200C0000206C
:1004400072000000F20B000077000000DE0B0000DD
:10045000CA0B00000EB5CDE9000100F0F1FB0290DF
:1004600069460120ABBE0EBD08B56946009002206A
:10047000ABBE08BD1FB58DE8070069460520ABBEC1
:1004800004B010BD1FB58DE80F0069460620ABBE55
:10049000F6E708B5694600900920ABBE08BD1CB55B
:1004A000CDE9000169460A20ABBE1CBD704708B506
:1004B000694600900C20ABBE08BD754600F02CFAD2
:1004C000AE4605006946534620F00700854618B041
:1004D00020B5FFF761FEBDE820404FF000064FF069
:1004E00000074FF000084FF0000B21F00701AC4669
:1004F000ACE8C009ACE8C009ACE8C009ACE8C00988
:100500008D46704770B50446051F00F00BFA006871
:10051000002C14BF446870BD002C18BFAC423CBF17
:1005200020466468F8D301680A18AA4218BF4560DB
:1005300003D12A6805461144016028684119A14287
:100540001CBF6C6070BD61686960216808442860E8
:1005500070BD2DE9F04705460C46C86820F4201010
:1005600040F48000C860800602D5084600F027FBF2
:10057000E06841F282014FF0FF390140022903D0C7
:10058000204600F0C5FAB5E000F42041B1F5004F77
:100590000FD1C00306D56168E06A884200D80846DA
:1005A000606006E02069E06260606069FFF77FFFDD
:1005B000A061A0680022EEB200280DDAE1688B0588
:1005C0000AD4C043A06041F490302260E0606068CB
:1005D000411C61600670A5E0E0689046226040F42E
:1005E0000050E060206968BB6069FFF752FF012797
:1005F00004F12405A0B1A08910F4407F08D0E0697F
:1006000000F0DBF9206118B1E06840F4006016E00A
:10061000E7612561E06820F4407040F480600EE0FE
:10062000E06900F0CAF900282061F1D0E06840F4E8
:10063000006010F4407FE06002D140F48070E06020
:1006400020696060E06825696FF0010AC1051FD567
:100650006168E06A884200D80846411B04D02246FF
:10066000284600F05FFAF0BBE068010203D5E562BE
:10067000C4E9015854E0691CE1626160E16940F439
:100680008030491EC4E9021030462E70BDE8F08764
:10069000010202D500F480320AE06068411C61600A
:1006A0000670E0680A2E40F48030E06006D0002238
:1006B000E16A6068814203D90B4602E00122F7E754
:1006C0000346A7895B1B7F0503D4E7699F4200DDD2
:1006D000E2B1814200D80146E5620F1AC4E901582F
:1006E000002B09DD00E005E022461946284600F00F
:1006F00019FA08B14846C9E747B1A069E5626560E3
:10070000C01BA061E06840F01000E060E0680002FB
:1007100008D56168A069E562491B08446560A0616D
:100720005046B3E73046B1E770B5C468A50713D0AB
:10073000650211D4B2F5807F09D0B2F5007F06D0F2
:10074000B2F5806F08D1012300F1240106E05D1E9F
:100750006FF07F46B54201D3012070BD0161C361D6
:10076000416024F470611143C160002070BD00003D
:100770002DE9F0410C4607461646104600F06EF88B
:100780002078611C61280AD0722802D077283CD1D9
:1007900002E00125002405E00225042402E00824EB
:1007A00048F2020511F8010B2B2806D0622809D067
:1007B00011F8010C74280AD00BE045F0030544F051
:1007C0000204EFE745F0040544F00104EAE744F0D1
:1007D000100438462146FFF73DFE411C15D000218C
:1007E000316171604FF40071F560F1617061200753
:1007F00004D530460222002100F00EF9306D40F0A1
:10080000010030653046BDE8F0810020FBE72DE9AE
:10081000F0410D460646104C206DC10704D041083A
:1008200004D020F00104F7E722460EE0542000F047
:10083000C4F807000ED0206D47F001010843542191
:100840002065384600F040F83A4629463046BDE873
:10085000F0418DE70020D6E7100000202DE9F04799
:1008600004464FF000094FF0FF37C568D4E904860D
:10087000A80707D0204600F07FF93046FFF7F4FDC7
:10088000002802DA3846BDE8F087280502D5404640
:10089000FFF738FE4C21204600F016F8206D20F0BE
:1008A000010020654846EEE710B50446AFF300802E
:1008B0002046BDE81040FFF75ABC10B500F0A6F97D
:1008C000BDE8104000F09CB94FF0000200B513469F
:1008D00094469646203922BFA0E80C50A0E80C5060
:1008E000B1F12001BFF4F7AF090728BFA0E80C5011
:1008F00048BF0CC05DF804EB890028BF40F8042B0A
:1009000008BF704748BF20F8022B11F0804F18BF76
:1009100000F8012B70470000004870470C010020D0
:10092000704700000048704714010020704770476E
:100930007047704738B504460A4600206946AFF351
:100940000080002808BF38BD02460099204600F00C
:10095000A4F9012038BD012000F0F3B9F8B5AFF3D8
:100960000080054600200C46102000BF0646A8194E
:10097000A0420DD9324669460020AFF3008007003F
:1009800008BF00F0DEF90098A04218BF0546C41960
:10099000FFF7C8FF05600746F01D20F00700461965
:1009A000284600F073F9B44208BFF8BDA21B3146D7
:1009B0003868BDE8F84000F070B970B50646FFF73A
:1009C000B1FF056806F10B0020F00704B4429CBF9C
:1009D000002070BD2B466A68BAB11068A04210D3DF
:1009E00004F1080188423CBF5068586007D3516841
:1009F000101941601168091B016058601460101DD6
:100A000070BD13465268002AE7D121462846FFF7F9
:100A100091FF0028DED170BD2DE9F0410446164655
:100A20000D464769007B80072ED03846FFF731FD21
:100A300050BB3EB3012E02D0022E25D104E0204649
:100A400000F045F905441DE03846FFF730FDE16848
:100A5000002841F01001E16005DA204600F058F866
:100A60000120BDE8F081C9030BD56268E16A9142BB
:100A700000D81146A26911442269891A814200DD19
:100A800008460544002D01DA0220EAE7E16A6068C1
:100A9000E268814206D29103E06203D522F400317C
:100AA00041F01002A6690027AE4213DCE16A8142E0
:100AB00001D90B4600E0034603EB060C2369ACEBBF
:100AC000030CAC4506DD814201D98C4600E084462A
:100AD0009C4505D1A760276042F02000A5620DE08B
:100AE000AD1BE669AE1B8142A66000D90846C01A5C
:100AF000281A20605819606022F02000034908403D
:100B0000E060002084F84870ABE70000BFCFD7FF5B
:100B1000C16821F4001141F08001C16000218160B1
:100B2000016070472DE9F047814614460E464FF0AC
:100B3000FF383248D5685769054209D03846A1695F
:100B4000FFF7ADFC002811DB2C48C0430540E560F1
:100B50002B46324649463846FFF78CFCA16920F007
:100B60000042B21A11440028A16103D02046FFF7C9
:100B7000CFFF4046BDE8F08770B504460569C06AFE
:100B80006168884200D80846E16821F42011E160DC
:100B9000C90312D5A84208D02246411B2846FFF7B8
:100BA000C1FF10B14FF0FF3070BD0020E562C4E915
:100BB0000150E06820F48030E060002070BD10B586
:100BC0000446C06820F02000E060A16AA069884265
:100BD0000DD02046FFF7D0FFE06820F4405040F0F1
:100BE0001000E060A06AA0612069E062606044F2E9
:100BF0004001E0688843E06010BD00001000020082
:100C0000002801D000F03CB87047000010B5014644
:100C100002A000F07DF8012010BD000053494752AA
:100C2000545245443A2052656469726563743A20AF
:100C300063616E2774206F70656E3A2000000000BB
:100C400010B5431C02E010F8011B71B18107FAD105
:100C50004FF0013202C88C1A8C4314EAC211F9D049
:100C6000C01A0A0603D0C01E10BDC01A10BD0A0467
:100C700001D0801E10BD0902FCD0401E10BD000036
:100C800001491820ABBEFEE72600020000210160EA
:100C9000C0E90110704710207047034640688C4639
:100CA000002818BF88423CBF03464068F8D3186844
:100CB0001844884207D00CF1030020F00700001D03
:100CC000411A521A0146081D0A60FFF71BBC10B5F5
:100CD0000146C268900703D0900607D5886A0AE0EB
:100CE00000F03EF801210160881E10BD8B69486844
:100CF00018440B69C01A91F848301BB191F849109B
:100D0000401A10BD1103FCD50028FADD401E10BDAD
:100D100070B505460C460A2000E06D1C00F018F87E
:100D200035B128780028F8D102E0641C00F010F8F2
:100D300014B120780028F8D1BDE870400A2000F0F6
:100D400007B810B500F010F8BDE81040FFF758BF25
:100D500008B569468DF800000320ABBE08BD000051
:100D6000004870470C01002010B5012805D0002173
:100D700003A0FFF7CDFF012010BD09A1F8E7000097
:100D800053494752544D454D3A204F7574206F6674
:100D90002068656170206D656D6F727900000000DC
:100DA0003A2048656170206D656D6F727920636FC0
:100DB000727275707465640030B5204CE46804F09C
:100DC0000204022C01D11E4800E01D481B4CE468BF
:100DD00004F0010404B140080146184CE46804F032
:100DE0000404042C05D1154C6468C4F30324631C6B
:100DF0005943124CE468C4F3012424B1012C06D0F9
:100E0000022C13D10DE00E4C0E4D2C6013E00B4C58
:100E1000E468C4F30314641CB1FBF4F2094C2260CF
:100E200009E04FF40044074D2C6004E049F64044CB
:100E3000044D2C6000BF00BF30BD00000000024028
:100E400000127A000000002000B50D480D49C8616D
:100E50000846C0680020C860084640680020486016
:100E60000846806800208860084600690020086104
:100E70000846406900204861FFF79EFF00BD000062
:100E800010000008000002408A68002A01DCFFF719
:100E900060BB521E8A604A68C0B2531C4B6010701F
:100EA00070470000ADF5844D00BF2B24002535E0D0
:100EB0001BA0FFF783F944F27C1169441CA0FFF7E3
:100EC0007DF9002110E000200AE00A1844F27C13AA
:100ED0006B449A5C05EBC5131EAE33441A54401C98
:100EE000A042F2DB6D1C21448129ECD314A0FFF752
:100EF00065F9002610E0002708E006EBC6101EAAE0
:100F00001044C15D11A0FFF759F97F1CA742F4DB23
:100F10000AA0FFF753F9761CAE42ECDBC8E70000ED
:100F2000456E746572206D6573736167653A0A007A
:100F3000596F7572206D73673A2025730A0000009F
:100F4000596F7572206D73673A20000025630000A9
:100F50003A7474003A7474003A7474007C0F000898
:100F60000000002010000000FC0000088C0F0008AA
:100F700010000020600700001801000800127A002D
:0C0F800000000000000000000000000065
:040000050800017D71
:00000001FF
